:020000041000EA
:10100000200D0020191000100000000099100010A1
:1010100000040100000000801149124A124B00F048
:1010200018F8124880471249124A134B00F011F881
:101030001249134A134B00F00CF81349134A0020CD
:10104000521A02DD043A8850FCDC114880471148EE
:1010500080479B1A03DD043BC858D050FBDC704727
:10106000202400100C0000201C0100200915001095
:1010700030250010200D0020340D002044250010E4
:10108000340D0020340D0020340D0020DC10002031
:101090007D1E0010E51C0010FEE700000022014B41
:1010A0005A717047200D00200022014B1A717047C1
:1010B000200D0020012210B5054C011C2068227172
:1010C00000F0ADFC2379002BFDD1012010BDC046FE
:1010D000200D0020031C0A1C012110B5044C617175
:1010E0002068191C00F05BFC6379002BFDD110BD5A
:1010F000200D002007B501AB187001210A2802D18C
:101100000D2249185A70181CFFF7E4FF01200EBD8C
:1011100038B5051C00F0E2FE041C281C211CFFF75A
:10112000D9FF201C38BD0FB4F0B58DB012AB40CB49
:1011300007933078002800D1FAE0252801D0013645
:101140007AE07778302F03D1F31CB778012207E0DB
:101150002D2F02D0B31C002202E00222B778F31C2C
:101160000192002202923A1C303A092A08D80A2237
:1011700002994A43D719303F02971F780133F2E7AB
:101180002022391C91431E1C0A1E4C2A05D10199AC
:10119000483A11431F7801910136002F00D1C7E072
:1011A0003A1C613AD2B23B1C192A01D8203BDBB26F
:1011B0004F2B15D008D8432B35D0442B40D00222DA
:1011C0000392422B3ED036E0552B39D0582B30D0ED
:1011D000532B30D1079B1F681A1D07923B1C01E05F
:1011E00008222EE0DD1B01335A1E1478002CF9D1A1
:1011F000019B9B0709D40135029A6B1E934204DAC6
:101200002020FFF777FF2418F5E7381CFFF780FF51
:101210002418029B9D4200DB87E02020FFF76AFF35
:1012200001352418F5E7079B18681A1D0792C0B20C
:1012300002E0102205E0381CFFF75CFF041C74E09C
:101240000A2203920199079A490705D5111D0791B2
:101250001468442B11D109E0442B03D1131D0793CB
:10126000146803E0131D0793146806E0002C04DAE9
:101270000823019A64421A4301920025201C039915
:1012800000F0F0FD6B4605911B7D201C0399049333
:1012900000F062FD059B041C092B07D92723782F3A
:1012A00000D0203B049A9B18DBB204930820049BD7
:1012B000013506A96A1E303309188B54002C01D061
:1012C000102DDBD1019B1B0705D508212D2306AA74
:1012D000521853550135019B3027DB0700D4103FCE
:1012E00000240395019B9B070BD4039B029A0133B7
:1012F0000393013B934204DA381CFFF7FBFE2418EA
:10130000F0E7082206AB9B18013D585DFFF7F2FE9F
:101310002418002DF5D1039D029B9D4205DA202063
:10132000FFF7E8FE01352418F6E7631C00D000E75C
:101330000DB0F0BC08BC04B01847000008B5104858
:10134000FFF7F1FE0F48FFF7EEFE0F48FFF7EBFE49
:101350000E48FFF7E8FE0E48FFF7E5FE0D48FFF7E1
:10136000E2FE0D48FFF7DFFE0C48FFF7DCFE0C48FD
:10137000FFF7D9FE0B48FFF7D6FE002008BDC04698
:10138000EA1E0010F31E00104E1F0010AF1F0010C9
:101390000720001051200010A3200010F82000109A
:1013A000522100100B22001010B52349041C00F03C
:1013B0008BFD002802D1FFF7C1FF3AE0201C1F4936
:1013C00000F082FD002834D0201C1D4900F07CFD77
:1013D00000282ED0201C1B4900F076FD002828D0C4
:1013E000201C194900F070FD002822D0201C17494C
:1013F00000F06AFD002803D11548FFF794FE18E0BD
:10140000201C144900F060FD0028F5D0201C124972
:1014100000F05AFD00280CD0201C104900F054FDAB
:10142000002806D02378002B03D00D48211CFFF79D
:101430007AFE002010BDC046AB210010B021001084
:10144000DC2100100E220010422200107222001037
:10145000A4220010B9220010CE220010FF2200109A
:101460003923001037B50021114B8AB25D781C7802
:101470001048A54213D002224D1CFF3295420DD0D8
:101480006C461A789A189278D2B2E2711A780132C0
:10149000D2B21A70E3794354291CE5E7013A0024DB
:1014A0008454FFF781FF0448FFF73DFE201C3EBD3A
:1014B000D90E0020340D0020592300100C4B0D4A8A
:1014C000196810B50904090E11601B680A4ADBB2DD
:1014D00013600A4C002907D00902C918084800F017
:1014E0003BFC4000206001E0064B236010BDC0467D
:1014F00000030140380E0020340E0020FC3F002085
:10150000000024F40048E80108B500F0BFFB00F03B
:10151000C5FB08BDF7B503250C1C2C40AC4001945D
:10152000F824019E8B08B4409B00C3181F69042651
:10153000A7431F614F00BD40446FAC4307250D40DA
:10154000AD00AE404467CC08A4000419276CB74333
:1015500027645678276CAE40351C3D4325640A4D00
:101560001478A84205D101258D40026EAA43026677
:1015700004E07F2C02D952688A40426001991A69BE
:101580008C4014431C61F7BD00020440C022034B91
:101590005A625A6A5207FCD47047C04600000140A4
:1015A00010B5041CFFF7F2FF054B186920431861C2
:1015B0001A685200FCD4C322024B5A6210BDC046C6
:1015C0000003014000000140F8B50D1C041CFFF7AA
:1015D000DDFF204B20491A681868120408401F4993
:1015E000120E08432843186018684000FCD41C4DB4
:1015F000A600A2421AD89000A0420DD2002A00D123
:1016000001321868920028400843160230431860DF
:1016100018684000FCD4EEE71A6824022A401143FF
:10162000214319600CE018684000FCD4B242F3D9A1
:101630001868920828400843170238431860F2E7F8
:101640001A685200FCD4C322064B5A62FFF736FFD9
:10165000F8BDC0460003014000FF0FC00000F03F8E
:10166000FF000FC00000014010B5041CFFF78EFF03
:10167000A2686168074811430368074A1340C32200
:101680000B430360054B5A6260782178FFF79CFF9B
:1016900010BDC04600030140FFFFF0FF0000014005
:1016A000014B18687047C046FC3F002010B503246A
:1016B00049008A408C40111C436FA3434367436F2A
:1016C0001943416710BD000070B50E1C041C00F0EA
:1016D00059F8F3791025002B00D01D1C2A1C201C62
:1016E000316800F067F8B379134A013B5B0013439C
:1016F00081226D0801352D021D43E56333795200C7
:10170000013B1B06134363637379002B04D0626BA8
:10171000013B1B04134304E03279616B531E1B042D
:101720000B436363A023DB00A36301235B42E364F9
:101730003389236470BDC04601000300031CFC33E1
:10174000DA68E023DB041A420BD17F22836B9343D8
:10175000DBB2802BF9D080239B01C3640430C167C6
:1017600002E0C0235B00C1507047031CE022FC3341
:101770001969D204114201D1406D00E0186A80B2AB
:1017800070470000902310B5DB05041E9C4202D078
:10179000074B984202D10820FFF702FF0323E360C2
:1017A000E368DB07FCD50F22236C9343236410BD51
:1017B00000020048F0B5012487B063293ED9002A11
:1017C0003CD00E1C0492051CFFF76AFF642100F058
:1017D000C3FA6421071C301C00F0BEFA194E0194B4
:1017E0000394341C049B43430593BB02DB1B02930D
:1017F0000298059900F0B0FA124A830A934206D87B
:101800008005800DB04202D2061C01930394029B16
:10181000013CDB1B0293002CEAD18023039A1B02BC
:1018200013432B61049B6969074A013B9B020A40F1
:101830001A43019B013B1B041A436A61201C07B039
:10184000F0BDC046FF030000EF8000FCFC3030B567
:10185000C568064C12062C40C460C568044C1B02C7
:101860002C4021430A431343C36030BDFFFFFFF800
:10187000C0C0FFF8FC3030B50569084C12062C409A
:1018800004610469064D1B022540802464052C4335
:1018900021430A431343036130BDC046FFFFFFF8F5
:1018A000C0C0FFEF1202090611430A1CFC3010B53C
:1018B000044B0469234003610469034B23401A432A
:1018C000026110BDFFFFFFF8FFC0FFFF10B5072446
:1018D0008C408A408369A3431343836110BD10B5D4
:1018E00007248C408A40FC30C368A3431343C36081
:1018F00010BD10B507248C408A40FC300369A34317
:101900001343036110BD704710B543680C1C2C33A2
:10191000197801238B405A1E9C4200D2621E006837
:10192000FFF7C0FF10BD08B543685B68984708BD66
:1019300070B544688568231C29331E780423002E63
:101940002BD12E7E023BF6B2002E26D10133002988
:1019500023D0002A21D0023B2B76231CAA602960C9
:10196000EE602B331B780268002B0AD08021131CF9
:101970008020FC330902D961D968C0050143D960D0
:1019800004E08021136C89010B43136480232D3400
:1019900021785B028B4093660023181C70BD08B54C
:1019A000436829331B78002B02D1FFF7C1FF00E009
:1019B000042008BD70B546688568331C2A331C783E
:1019C0000423002C29D16C7E023BE4B2002C24D1EC
:1019D0000133002921D0002A1FD0023B69602A610F
:1019E0006B766C612C3633780568002B10D0802321
:1019F000061CDB01FC35111CEB61FFF785FFC021E4
:101A00003368C905FC331A690A431A61231C04E0D0
:101A1000C0212A6C09020A432A64181C70BD08B54B
:101A200043682A331B78002B02D1FFF7C3FF00E085
:101A3000042008BD38B58468051CE268A3689A4292
:101A40001FD243682B331B78002B11D02868031C4E
:101A5000FC339B69DB0436D4E368A268934232D23C
:101A60002268D15CFFF76AFEE3680133E360EDE7CB
:101A700023680068995CFFF761FEE3680133E36067
:101A800021E00268131CFC33996909051BD54168E4
:101A9000081C2B300078002804D0DD680A48284054
:101AA000D86003E0106C094B034013647F20936BF4
:101AB0008343DBB2802BF9D00023237623608B682D
:101AC000002B00D0984738BDFFFFFFBFFFDFFFFFAF
:101AD00070B54368051C2C331B788468002B2BD011
:101AE0002868031CFC339B691B071CD463692269AB
:101AF000934207D26268D618FFF737FE30706369E9
:101B000001336361636922699342E9D100236376FB
:101B10002B68184AFC3319690A401A616B68DB6844
:101B2000002B00D0984761692369994221D2591A44
:101B3000281CFFF7E9FE1CE063692269934208D282
:101B400062680068D618FFF710FE307063690133D1
:101B500063616369226993420BD100232A6863762B
:101B6000116C054B0B4013646B68DB68002B00D0D5
:101B7000984770BDFFFFFF9FFF3FFFFF70B59024A8
:101B80002D4EE405301C2D4A0221FFF7C3FC201C1A
:101B90002B49FFF799FD07220621E369201C934397
:101BA0000B43E361A36A0A319343A362236B0225CB
:101BB00093432363033A0123FFF748FE0021201CCF
:101BC0000B1C0422FFF756FE0F22236C301C93439C
:101BD0002B43236401211B4AFFF79CFC201C10218E
:101BE0000022FFF773FE2A1C201C1021FFF777FE4E
:101BF000201C10210122FFF77CFE201C1321012252
:101C0000FFF777FEC221C0200F4A89005358000613
:101C10001B021B0A0343535080231B0113605058BF
:101C20000A4B0340C0200004034353508023DB00D1
:101C30000020136070BDC046000204408C230010D9
:101C4000A8230010A023001000E100E0FFFF00FF28
:101C500008B50248FFF7EEFE08BDC046280D00207B
:101C600008B50248FFF734FF08BDC046280D002024
:101C700010B5041C017B021D0068FFF74BFC2068B7
:101C8000217B627BFFF712FD002010BD70470378B7
:101C9000002B01D1013303700020704730B585B0AF
:101CA00001A8021C034B32CB32C2FFF7DDFC05B0AA
:101CB00030BDC046C423001008B50748FFF7E7FF52
:101CC000002807D10548FFF7D3FF002802D10448B8
:101CD000FFF729FE08BDC046580E0020B4230010AF
:101CE000280D002013B56B46DC1D00232370FFF781
:101CF000E3FF002803D01348FFF715FAFEE7FFF7CC
:101D00001DFB1148FFF70FFA201CFFF7D3F900283D
:101D1000FAD021780D48FFF706FA21780D2901D075
:101D20000A2905D10A48FFF7FEF9FFF79BFBEBE70D
:101D3000084A5378D318997053780133DBB2537043
:101D4000E2E7C046D0230010F1230010F323001077
:101D500057230010D90E0020002243088B4274D371
:101D600003098B425FD3030A8B4244D3030B8B429C
:101D700028D3030C8B420DD3FF22090212BA030CA5
:101D80008B4202D31212090265D0030B8B4219D386
:101D900000E0090AC30B8B4201D3CB03C01A5241A6
:101DA000830B8B4201D38B03C01A5241430B8B42EE
:101DB00001D34B03C01A5241030B8B4201D30B03D7
:101DC000C01A5241C30A8B4201D3CB02C01A5241FE
:101DD000830A8B4201D38B02C01A5241430A8B42C1
:101DE00001D34B02C01A5241030A8B4201D30B02AA
:101DF000C01A5241CDD2C3098B4201D3CB01C01AC4
:101E0000524183098B4201D38B01C01A52414309CD
:101E10008B4201D34B01C01A524103098B4201D3BB
:101E20000B01C01A5241C3088B4201D3CB00C01A28
:101E3000524183088B4201D38B00C01A52414308A0
:101E40008B4201D34B00C01A5241411A00D20146C5
:101E5000524110467047FFE701B5002000F00CF832
:101E600002BDC0460029F7D003B5FFF775FF0EBCD1
:101E70004243891A1847C0467047C0460E4B70B59A
:101E800000251E1C0D4CE41AA410A54204D0AB0082
:101E9000F35898470135F8E7FFF735FD084B002563
:101EA0001E1C084CE41AA410A54204D0AB00F35841
:101EB00098470135F8E770BD340D0020340D00203F
:101EC000340D0020340D002002780B78002A03D056
:101ED000013001319A42F7D0D01A70470023C25C1A
:101EE0000133002AFBD1581E704755736167653A6C
:101EF0000A0D006F7074785F6765745F726E67209B
:101F000020202020202020202020202E2E2E2E2E8B
:101F10002E2E2E2E2E2E2E2E2E2E2E2E2E2E2E2EE1
:101F20002E4F707469676120547275737420582045
:101F300067656E657261746573206120333220625B
:101F40006974205472756520524E470A0D006F70F7
:101F500074785F6765745F7368613235362020205E
:101F60002020202020202E2E2E2E2E2E2E2E2E2EE5
:101F70002E2E2E2E2E2E2E2E2E2E2E2E4F7074699D
:101F80006761205472757374205820706572666F93
:101F9000726D732061205348413235362068617379
:101FA00068206F66206D6573736167650A0D006F49
:101FB0007074785F67656E4B65795F7061697220D8
:101FC000202020202020202E2E2E2E2E2E2E2E2E93
:101FD0002E2E2E2E2E2E2E2E2E2E2E2E2E4F707478
:101FE00069676120547275737420582067656E6547
:101FF000726174657320454343323536204B6579F1
:10200000506169720A0D006F7074785F7369676E52
:102010005F68617368202020202020202020202E4F
:102020002E2E2E2E2E2E2E2E2E2E2E2E2E2E2E2ED0
:102030002E2E2E2E2E4F7074696761205472757388
:10204000742058207369676E7320686173680A0D85
:10205000006F7074785F7665726966795F7369671F
:102060002020202020202020202E2E2E2E2E2E2E0E
:102070002E2E2E2E2E2E2E2E2E2E2E2E2E2E2E4F5F
:102080007074696761205472757374205820766586
:10209000726966696573207369676E6174757265CC
:1020A0000A0D006F7074785F7369676E5F76657292
:1020B0006966795F736967202020202E2E2E2E2ED0
:1020C0002E2E2E2E2E2E2E2E2E2E2E2E2E2E2E2E30
:1020D0002E4F707469676120547275737420582094
:1020E0007369676E20262076657269667920707242
:1020F0006F636573730A0D006F7074785F65636456
:10210000685F6465726976655F6B65792020202061
:102110002E2E2E2E2E2E2E2E2E2E2E2E2E2E2E2EDF
:102120002E2E2E2E2E2E4F707469676120547275DC
:10213000737420582063726561746573204543444D
:102140004820736861726564207365637265740A00
:102150000D006F7074785F726561645F6966785FA7
:10216000636572742020202020202E2E2E2E2E2EED
:102170002E2E2E2E2E2E2E2E2E2E2E2E2E2E2E2E7F
:1021800052656164696E6720496E66696E656F6E3F
:1021900020456E646F7273656D656E742043657261
:1021A00074696669636174650A0D0068656C700026
:1021B0006F7074785F6765745F726E6700466169FF
:1021C0006C20746F2065786563757465206F70741A
:1021D000785F6765745F726E670A0D006F70747860
:1021E0005F6765745F736861323536004661696C9C
:1021F00020746F2065786563757465206F707478DE
:102200005F6765745F7368613235360A0D006F7001
:1022100074785F67656E4B65795F706169720046BF
:1022200061696C20746F2065786563757465206FD3
:102230007074785F67656E4B65795F706169720A6B
:102240000D006F7074785F7369676E5F68617368A3
:10225000004661696C20746F2065786563757465EC
:10226000206F7074785F7369676E5F686173680A66
:102270000D006F7074785F7665726966795F736957
:1022800067004661696C20746F20657865637574BA
:1022900065206F7074785F7665726966795F7369BF
:1022A000670A0D005369676E617475726520566523
:1022B0007269666965640A0D006F7074785F73698E
:1022C000676E5F7665726966795F736967006F70C4
:1022D00074785F656364685F6465726976655F6B77
:1022E0006579004661696C20746F20657865637557
:1022F0007465206F7074785F656368640A0D006FA1
:102300007074785F726561645F6966785F63657237
:1023100074004661696C20746F2072656164206589
:102320006E646F7273656D656E7420636572746937
:102330006669636174650A0D000D0A53796E7461F4
:1023400078206572726F7220696E20636F6D6D61A7
:102350006E643A2025730D0A00242000A823001083
:102360007D1B00109D100010A9100010000000003F
:10237000000000000000000000000000000000005D
:10238000942300100000000404020000000000007C
:10239000010000000002044001000000A023001022
:1023A000B0000000010000000096000008080110C5
:1023B0000000000000010440800000000000010057
:1023C000000000000001000000000100000000000B
:1023D00044415645204150507320696E69746961CB
:1023E0006C697A6174696F6E206661696C65640AF4
:0823F000002400256300000039
:1023F8001000000000000000017A5200027C0E016B
:102408001B0C0D001000000018000000B4FAFFFFBC
:082418001400000000000000A8
:102420002C4887460000000000000000000000006B
:10243000000000000000000000000000000000009C
:10244000254887460000000000000000234887461A
:10245000234887462348874623488746234887469C
:10246000234887462348874623488746234887468C
:1024700000000000000000002148874621488746F0
:102480002148874621488746214887462148874674
:1024900021488746214887460000000000000000D0
:1024A00000000000000000001D4887461D488746C8
:1024B0001D4887461D4887460000000000000000B8
:1024C000000000000000000000000000000000000C
:1024D00000000000991000109910001099100010D1
:1024E0009910001099100010991000109910001008
:1024F00099100010991000109910001099100010F8
:1025000099100010611C0010511C0010991000104F
:1025100099100010991000109910001099100010D7
:1025200099100010991000109910001099100010C7
:10253000280D002001010000000000485C2300106D
:042540003C0E00202D
:0400000510001019BE
:00000001FF
